S00F000050726F6A6563742E737265633E
S113000045C0000058C0000056C0000054C00000A5
S113001052C0000050C000004EC000004CC00000A0
S11300204AC0000048C0000046C0000044C00000B0
S113003042C0000040C000003EC000003CC00000C0
S11300403AC0000038C0000036C0000034C00000D0
S113005032C0000030C000002EC000002CC00000E0
S11300602AC0000028C0000026C0000024C00000F0
S113007022C0000020C000001EC000001CC0000000
S11300801AC0000018C0000016C0000011241FBED2
S1130090CFEFD0E1DEBFCDBF11E0A0E0B1E0EEECE8
S11300A0F5E000E00BBF02C007900D92AA30B10743
S11300B0D9F71DD18AC2A4CFEFE3FFE13197F1F75D
S11300C000C00000982F907F95BB95B39E7F95BB91
S11300D095B39D7F95BBF5E0FA95F1F7000095B3D4
S11300E0946095BB25E02A95F1F7000095B39B7FBA
S11300F095BBE0E18E9FC001112485BB85B38E7F43
S113010085BB85B38D7F85BBF5E0FA95F1F70000DB
S113011085B3846085BB25E02A95F1F7000085B39B
S11301208B7F85BB0895019719F48FE7860F02C072
S11301308FEB860FC1CF08952FEF86E791E0215012
S113014080409040E1F700C0000088E2B5DF8CE019
S1130150B3DF81E0B1DF87EE97E10197F1F700C0EB
S1130160000086E0A9CF0895EFE3FFE13197F1F7AE
S113017000C00000982F907F95BB95B3916095BB0C
S113018095B39D7F95BBF5E0FA95F1F7000095B323
S1130190946095BB25E02A95F1F7000095B39B7F09
S11301A095BBE0E18E9FC001112485BB85B38160BE
S11301B085BB85B38D7F85BBF5E0FA95F1F700002B
S11301C085B3846085BB25E02A95F1F7000085B3EB
S11301D08B7F85BB0895CF92DF92EF92FF920F93AE
S11301E01F93CF93DF93CDB7DEB72A970FB6F8945A
S11301F0DEBF0FBECDBF6C018AE0E0E0F1E0DE01BE
S1130200119601900D928A95E1F7C60168EE73E0AC
S1130210B5D17B01C60164E670E0B0D1CB012AE020
S113022030E0B901ABD18C01C601B901A7D1F82FD7
S1130230E92FCB01B901A2D1BC014F2F5E2F20E0E1
S113024030E042C0E1E0F0E0EC0FFD1FEE0DFF1DD9
S1130250808188BB88E082BB8FE99FE00197F1F73A
S113026000C00000E1E0F0E0EC0FFD1FE00FF11F23
S1130270808188BB84E082BB8FE99FE00197F1F71E
S113028000C00000E1E0F0E0EC0FFD1FE60FF71FF7
S1130290908198BB92E092BB8FE99FE00197F1F7C0
S11302A000C00000E1E0F0E0EC0FFD1FE40FF51FDB
S11302B0908198BB91E092BB8FE99FE00197F1F7A1
S11302C000C000002F5F3F4F253031050CF4BACF3A
S11302D02A960FB6F894DEBF0FBECDBFDF91CF9143
S11302E01F910F91FF90EF90DF90CF900895CF93DF
S11302F0DF93CDB7DEB72E970FB6F894DEBF0FBEEF
S1130300CDBFFE0131968EE0DF011D928A95E9F79B
S11303108FEF84BB82B98ABB1BBA15BA12B887BBEC
S11303209FE091BB88BB92BB07DFE12CF12C612CD1
S1130330712C812C912CA12CB12C089906C081E040
S11303408B19B82EBFEFEB1AFB0A099906C081E09E
S11303508A19A82E2FEFE21AF20A0A9906C081E040
S11303608919982E3FEFE31AF30A0B9906C081E02E
S11303708819882E8FEFE81AF80A0C9906C081E0D4
S11303808719782E9FEFE91AF90A0D9906C081E0C2
S11303908619682EAFEFEA1AFA0A0E9905C0BFEF64
S11303A0EB1AFB0A81E001C080E021E0B21208C030
S11303B021E030E03A8329839BB391609BBB07C063
S11303C0B11005C01A8219829BB39E7F9BBB31E09A
S11303D0A31208C021E030E03C832B839BB39260DE
S11303E09BBB07C0A11005C01C821B829BB39D7FD1
S11303F09BBB91E0991208C021E030E03E832D833D
S11304009BB394609BBB07C0911005C01E821D82E4
S11304109BB39B7F9BBBA1E08A1208C021E030E024
S113042038872F839BB398609BBB07C0811005C09E
S113043018861F829BB3977F9BBBB1E07B1208C0D9
S113044021E030E03A8729879BB390619BBB07C0CA
S1130450711005C01A8619869BB39F7E9BBB21E051
S1130460621208C021E030E03C872B879BB3906286
S11304709BBB07C0611005C01C861B869BB39F7D78
S11304809BBB813031F4612C712C812C912CA12CDB
S1130490B12CC701A0DE80E090E017C0FC01EE0F94
S11304A0FF1FA1E0B0E0AC0FBD1FEA0FFB1F2081CE
S11304B031812130310539F480E48BBB05E010E053
S11304C0C12CD12C24C01BBA01968830910534F379
S11304D0F5CF6BE070E0601B710B81E090E023DEF0
S11304E0F801EE0FFF1F21E030E02C0F3D1FE20F5B
S11304F0F31F80819181019731F48FE435DE3FEF62
S1130500C31AD30A02C088E52FDE01501109112352
S113051004F761E070E082E090E005DE85E524DE2A
S113052083E722DE89E620DE8EE61EDE87E61CDE19
S113053080E21ADE85E418DE8CE616DE85E614DE3B
S113054083E612DE8AE310DE6DE070E082E090E084
S1130550EADD80E309DE8EE207DE80E38C0D04DE53
S113056087E502DE8FEF9AE6A3E081509040A04039
S1130570E1F700C0000081E09FDDDFCE97FB072E8E
S113058016F4009406D077FD08D00BD007FC05D0F4
S11305903EF4909581959F4F0895709561957F4F96
S11305A00895AA1BBB1B51E107C0AA1FBB1FA617B6
S11305B0B70710F0A61BB70B881F991F5A95A9F708
S11105C080959095BC01CD010895F894FFCF6D
S10D05CEC0F9A4B0999282D880907D
S9030000FC
